:020000040800F2
:1000000080070020350200084B1D0008311C000845
:10001000491D0008431B000871250008000000006E
:100020000000000000000000000000004D2100085A
:10003000451B00080000000083200008052200087E
:100040004F0200084F0200084F0200084F0200084C
:100050004F0200084F0200084F0200084F0200083C
:100060004F0200084F0200084F0200084F0200082C
:100070004F0200084F0200084F0200084F0200081C
:100080004F0200084F0200084F0200084F0200080C
:100090004F0200084F0200084F0200084F020008FC
:1000A0004F0200084F0200084F0200084F020008EC
:1000B0004F0200084F0200084F0200084F020008DC
:1000C0004F0200084F0200084F0200084F020008CC
:1000D0004F020008992300084F0200084F02000851
:1000E0004F0200084F0200084F02000800F002F81B
:1000F00000F090F80AA090E8000C82448344AAF132
:100100000107DA4501D100F085F8AFF2090EBAE82F
:100110000F0013F0010F18BFFB1A43F0010318473B
:1001200080300000A0300000103A24BF78C878C1A9
:10013000FAD8520724BF30C830C144BF04680C60ED
:10014000704700000023002400250026103A28BF35
:1001500078C1FBD8520728BF30C148BF0B60704739
:100160006E2900F06181702900F0A382662902F0F7
:100170006383652902F06083672902F05D8361294A
:1001800002F05C8303681B0A28BF41F080016929E3
:1001900000F00E81642900F00B81752900F00881C0
:1001A0006F2900F03082782900F06F82E92900F091
:1001B000CB81E42900F0C881F52900F0C581EF2941
:1001C00000F02D82F82900F06E820368DB0928BF59
:1001D00041F08001632900F07187732900F0768770
:1001E000E32900F08187F32900F08687002070471B
:1001F0001FB500F0D3FF04000020002102F006FB31
:10020000401C60600020002102F0EAFAE0601FBD9F
:1002100010B510BD00F094FF1146FFF7E9FF02F0A2
:10022000C3F901F071F803B4FFF7F2FF03BC01F06A
:10023000B9F800000948804709480047FEE7FEE793
:10024000FEE7FEE7FEE7FEE7FEE7FEE7FEE7FEE786
:1002500004480549054A064B70470000092200087A
:10026000ED000008800100208007002080030020AE
:10027000800300201CB50C46064B7B446946009069
:10028000204600F0EAF804460020694600F0F8F83D
:1002900020461CBD030200004FF0000200B51346CB
:1002A00094469646203922BFA0E80C50A0E80C5096
:1002B000B1F12001BFF4F7AF090728BFA0E80C5047
:1002C00048BF0CC05DF804EB890028BF40F8042B40
:1002D00008BF704748BF20F8022B11F0804F18BFAD
:1002E00000F8012B704770477047704770B504469F
:1002F00085690068C10601D5302600E02026C007C8
:1003000007D070BDD4E9012130469047206A401CD7
:1003100020626D1EF6D570BD70B504468569007803
:10032000C00707D170BDD4E9012120209047206A81
:10033000401C20626D1EF6D570BD09684A0501D5C6
:1003400040B27047C905FCD500B2704709684A053C
:1003500001D5C0B27047C905FCD580B2704770B5F1
:100360000C460546012A05D02878800600D5EA69A2
:10037000002302E0012305E05B1C934202D2E05C13
:100380000028F9D1A869E618C01AA861286A18449B
:1003900028622846FFF7AAFF04E0D5E9012114F8F6
:1003A000010B9047B442F8D32846FFF7B5FF70BD64
:1003B0002DE9F0410646002410687529314616A53E
:1003C00010D0FFF7BAFF002802DA404213A507E079
:1003D00031688A0701D512A502E0490704D511A5A5
:1003E000012401E0FFF7B2FF00210A2206F12407F1
:1003F00009E0B0FBF2FCB0FBF2F302FB1C00303072
:1004000078541846491C0028F3D123462A46304622
:10041000BDE8F04100F061BA000000002D000000CE
:100420002B0000002000000011680268006A5305DC
:1004300001D508700AE0D30501D5088006E013064F
:1004400003D5C217C1E9000200E00860012070472F
:1004500001694A1C02610878704700B58FB0CDE988
:1004600001310021059105497944CDE90310114678
:10047000684600F029F90FB000BD0000E5FFFFFF5E
:100480000A6802F8010B0A60704700002DE9FF5F5F
:1004900015468A460446DFF8AC80F8440027D8E9C0
:1004A00000103E46CDE9001010E03AF816106A46FA
:1004B00002A800F025FE411C07D02178890603D54B
:1004C000E269391891420DD80744761C20788006DD
:1004D00002D5E069B84205DDAE42E6DB3AF8160027
:1004E0000028E2D1A069C01BA0612046FFF7FEFEF4
:1004F000D8E90010CDE90010002017E03AF81810F4
:100500006A4602A800F0FCFDB0F1FF3F81460BD027
:1005100000250DF1080B05E0D4E901211BF80500C9
:1005200090476D1C4D45F7D308F10100B04280465D
:10053000E4DB206A384420622046FFF7EDFEBDE888
:10054000FF9F0000062C00002DE9F0418046D21DDF
:1005500022F007020025D2E90002F52915A614D0E1
:10056000011E72F1000106DA0023D0EB030063EBF9
:10057000020211A608E0D8F800108B0701D50FA6DB
:1005800002E0490701D50EA601251146002408F115
:10059000240704E000F05CF930323A55641C50EA5C
:1005A0000102F7D12B46324621464046BDE8F041D4
:1005B00000F093B9000000002D0000002B000000A7
:1005C0002000000030B4002100F1240408E002F013
:1005D0000705D208303542EA4372DB086554491CEE
:1005E00052EA0305F3D10468002310A2250707D5BA
:1005F000A40600D421B1C46901230DA2641EC46104
:1006000030BC00F06AB910B5044621461068FFF707
:100610009DFE02462046BDE810400023D2E7D21DD1
:1006200022F00701D1E90023CCE700000000000020
:1006300030000000F0B40D460188090502D5214CB8
:100640007C4402E01F4C7C440E34002100F124065F
:1006500008E002F00F071209E75D42EA03721B0986
:100660007754491C52EA0307F3D10278002312079A
:1006700004D5702D06D009B1022311342246F0BCF6
:1006800000F02BB901231034F8E770B504460D468D
:1006900021461068FFF75AFE024629462046BDE86B
:1006A00070400023C6E7D21D22F00703D3E90023E0
:1006B000C0E70368126843F0200303600823C361A6
:1006C0000023B7E7682A00002DE9F05F8946044659
:1006D0004FF0000ADFF874B1FB44C0F820A02046B8
:1006E000E1688847002874D0252806D0D4E9012184
:1006F0009047206A401C2062F1E700265F462046B2
:10070000E16888472028054607DB312D05D2781996
:1007100010F8200C08B10643F1E7B00701D526F028
:100720000406C4F81CA00027C4F818A02A2D09D07C
:10073000284601F032FF38B304EB8708303DC8F893
:10074000185019E059F8041B204604EB8702916108
:10075000E1688847012F054618D1E069002820DAB2
:1007600026F020061DE0D8F8180000EB800005EB0D
:1007700040003038C8F818002046E1688847054630
:1007800001F00BFF0028EED1012F0AD02E2D08D149
:100790002046E16888477F1C0546022F46F0200668
:1007A000C4DBA069002803DA404246F00106A061DC
:1007B000F00701D026F010066C2D0BD0682D09D063
:1007C0004C2D39D06A2D35D0742D35D07A2D33D0BB
:1007D00016E038E0E1682F4620468847B8420546D3
:1007E00009D16C2F26D04FF48060E1680643204683
:1007F0008847054604E06C2F1AD04FF480700643FA
:100800000DB3A5F14100192802D8203546F4006641
:100810004A462946204626604E46FFF7A1FC80B195
:1008200001280BD0F61D26F0070000F1080956E755
:100830004020E4E78020D8E70020D6E706F104094D
:100840004DE7284652E7206ABDE8F09FF8290000EE
:1008500030B5B0F10A024FEA900E71F100034EEA92
:10086000817EB0EB0E0061EB91014FEA101E4EEA63
:10087000017E10EB0E0041EB11114FEA102E4EEAF3
:10088000016E10EB0E0041EB11214FEA104E4EEAC3
:10089000014E10EB0E0041EB1141401841F10001F7
:1008A0004FEAD00040EA41704FEAD10110EB8005D9
:1008B0004FEA810444EA907444EB01046D1944EB5F
:1008C0000404521BA3414FF0000348BF0A3200D575
:1008D00030BD401C41F1000130BD2DE9F0470D460F
:1008E00099469246044600F124080168880604D51A
:1008F000E06921F01001216000E00120A84201DD43
:10090000471B00E00027A1697A1902EB0900081AC9
:10091000A0612078C00602D42046FFF7E7FC00263D
:1009200008E0D4E901211AF806009047206A401C2B
:10093000761C20624E45F4DB2078C0060AD520469E
:10094000FFF7D4FC06E0D4E9012130209047206A6B
:10095000401C2062381EA7F10107F4DC07E0D4E94F
:10096000012118F805009047206A401C2062281ECB
:10097000A5F10105F3DC2046FFF7CEFC2078000648
:1009800002D50220BDE8F0870120FBE770472DE982
:10099000FF4F0C461E464FF0FF378BB0D2E90001E7
:1009A000DDF860800A908A46C1F30A5505B93D46D4
:1009B000002108464FF00000BAF1000F00F440009B
:1009C00005DA00EB80004FF4400101EA50004FEAE5
:1009D0009059B9F1010F00DDB9460A9850EA4A0072
:1009E0000ED044F61050A5F2FF3545432F14B8F150
:1009F000000F1ED07542291E1EDDC9F100021CE049
:100A0000B8F1010F4FF0000001D0302103E0F243B4
:100A100005E02154401CB042FBDB3046002200219F
:100A200021540B99C1F80880C1E900200FB0BDE83E
:100A3000F08FBD1B6D1CDEE74A4600DA694206A84E
:100A400000F0F0FB06AB93E8070003AB83E8070078
:100A500050460A9900F0ADFC8DE80700A0F5005063
:100A60001F3800900398002D0ADD42F21F014A460C
:100A70000844002303A90390684600F016FF09E02C
:100A8000A0F500504A461F38002303A9039068468A
:100A900000F020FF8DE807000004000C03D04FF0A9
:100AA000FF30410800E01046B8F1000F03D00022EB
:100AB000009215461EE0751E05D4FFF7C9FE3032C0
:100AC00062556D1EF9D5B3460122084302D00022BB
:100AD0007F1C04E02078302801D100227F1E002AEC
:100AE000099784D01DE0112D07DAFFF7B1FE3032EF
:100AF00062556D1C50EA0102F5D1084302D00098FE
:100B0000C8B10EE00021681E05E0235C625C6354FE
:100B10002254401E491C8142F7DBAB46A81B401EF5
:100B20000990002004F80B000B98099AC0F808807F
:100B3000C0E9002B7AE711264FF0000857E72DE9AE
:100B4000F04F88460446D21D22F0070191B0D1E94A
:100B50000001CDE90A0101F00CFD02460B98C00F1F
:100B600001D02D2007E02068810701D52B2002E06D
:100B7000202101EAC000032A099001D0072A05DBE1
:100B800003464146204600F00DFB0BE1207880062D
:100B900001D5E06900E00620B8F1650F814606D076
:100BA000B8F1660F18D0B8F1670F70D131E00020AE
:100BB000B9F1110F009001DB112301E009F10103EC
:100BC0000AAA01A90CA8FFF7E2FEDDE90C700026D5
:100BD00009F10105834647E001204B4600904FF0A4
:100BE00000470AAA01A90CA8FFF7D1FEDDE90DB064
:100BF0000C995D46002610B909F101000D18B9EBFA
:100C0000050003D4C0F1FF3609F10105A5EB090089
:100C10002BE0B9F1010F01DA4FF001090020B9F121
:100C2000110F0090484601DD112300E003460AAA97
:100C300001A90CA8FFF7ABFEDDE90C704D460026BC
:100C40008346207800070AD4AB4500DA5D4601A848
:100C5000012D04DD411911F8011C302907D04F4541
:100C600002DA17F1040F04DA012082460FE06D1E4C
:100C7000EEE7002F02DCED1B3E4403E0781CA842A7
:100C800000DD7D1CB81B00F1010A4FF00047207801
:100C9000000703D4AA4501DB4FF0FF3A0021B7F16A
:100CA000004F0DF143088DF8431024D002202B2370
:100CB000002F01DA7F422D230A21021EA0F101003C
:100CC00000DC5FB197FBF1FC97FBF1F201FB1C7CB0
:100CD00017460CF1300C08F801CDEEE7A8F1010041
:100CE00003702188090501D5452100E06521A0F1A7
:100CF000010800F8011C09980FA9A1EB0807FF1DC6
:100D000000B10120411901EBEA70A1693844081AC9
:100D1000401EA0612078C00602D42046FFF7E6FA04
:100D2000099828B1D4E901219047206A401C20622B
:100D30002078C00622D52046FFF7D8FA1EE0002E04
:100D400004DBB34502DD01A8805D00E03020D4E97A
:100D500001219047206A401C2062761CAAF1010004
:100D60005FEA000A0AD100F019FAC0680168405C25
:100D7000D4E901219047206A401C2062281EA5F179
:100D80000105DCDC07E0D4E9012118F8010B9047EC
:100D9000206A401C2062381EA7F10107F3DC2046C0
:100DA000FFF7BAFA032011B041E600002DE9F04F39
:100DB00004460D46D21D22F0070089B0D0E9009705
:100DC0004846394601F0D5FB0246F80F01D02D23E5
:100DD00007E02068810701D52B2302E0202101EAEA
:100DE000C0038DF820300BB1012000E00020032A61
:100DF000824601D0072A04DB2946204600F0D2F9BA
:100E00003FE12078800601D40D2500E0E569C7F3B5
:100E10000A560D2D49DA00214FEA175B08464FF0BC
:100E20000000002F00F4400007DA00EB80004FF4D0
:100E3000400100EBD07001EA60008115012901DD5D
:100E40004FF0FF3100224FEA850CBCF1180F06D39A
:100E50001346ACF118004FF08052C24003E04FF44B
:100E6000801323FA0CF30CF10C0CBCF1200F04D30B
:100E7000ACF1200C09FA0CF001E007FA0CF00029A3
:100E80004FF0004801DD18B90FE00ED140450CD3FA
:100E900019EB02095F4121B9404502D19F4329EA7C
:100EA0000209BBEB175F00D0761C2088000502D535
:100EB0007B48784402E07A487844193808AA3023FD
:100EC00002F80A30037C0AF10101002E0AF1020A3D
:100ED00053546A4602DC4FF0300101E04FF031011B
:100EE0004FF001088DF8001002D0A6F2FF3603E0A3
:100EF00059EA470100D06B4E002D02DC217809072A
:100F000004D54FF002082E218DF80110C4460021AF
:100F10000BE0C7F303433F01C35C491C6D1E02F89D
:100F20000830052908F1010801DA002DF1DC002163
:100F30000CE000EB1973491C1B786D1E082902F8A0
:100F400008304FEA091908F1010801DA002DF0DC38
:100F500021688B0602D516E0A8F10108E04505DD01
:100F600002EB080313F8013C302BF5D0B8F1000F69
:100F700009DD02EB080313F8013C2E2B03D109070E
:100F800001D4A8F10108002D05DD3E2102F808106A
:100F90006D1E08F10108407C002E02F8080008F1DF
:100FA000010804DA2D20764202F8080002E02B2026
:100FB00002F808000A214FF47A70864208F101080D
:100FC0000BDB96FBF0F3303302F8083096FBF0F3BE
:100FD00008F1010800FB136601E0642E0CDB6420BD
:100FE00096FBF0F3303302F8083096FBF0F308F18B
:100FF000010800FB136601E00A2E06DB96FBF1F008
:10100000303002F8080008F1010896FBF1F001FB0E
:101010001060303002F80800A16908F1010808EBFF
:10102000050202EB0A00081AA0612078C00602D46B
:101030002046FFF75BF9216A08AE01EB0A00206247
:1010400004E0D4E9012116F8010B9047BAF1010A36
:10105000F7D22078C00602D52046FFF747F96E4642
:1010600009E016F8010B3E280FD0D4E90121904782
:10107000206A401C2062B8F10108F2D22046FFF736
:101080004BF909B00320BDE8F08F206A28442062A4
:1010900003E0D4E90121302090476D1EEBD3F8E73F
:1010A0004222000002FCFFFF10B5436913B1AFF309
:1010B000008001E0FFF753F9012010BD127800F124
:1010C00024010A7000224A700122EDE711684FF0F6
:1010D000FF32E9E710B5436913B1AFF3008001E0D7
:1010E000FFF7D4F9012010BD128800F12401828499
:1010F0000022C2840122EDE711684FF0FF32E9E7D8
:1011000070B516460C46054600F040F8036893F8A3
:101110000101012806D0FF2C0FD8185D68B101200D
:101120002C7070BDD3F807013246214603F2071335
:1011300003442846BDE8704018474FF0FF3070BDAB
:10114000754600F0EBF8AE4605006946534620F0C0
:101150000700854618B020B5FFF77AF8BDE82040B3
:101160004FF000064FF000074FF000084FF0000B63
:1011700021F00701AC46ACE8C009ACE8C009ACE816
:10118000C009ACE8C0098D467047000010B500F0FA
:1011900005F8001D10BD00BF75160000004870471F
:1011A0003C0100202DE9F0411F460446032601685A
:1011B000072A01F4006004DB08B116A505E016A5B6
:1011C00003E008B115A500E015A521F0100020608E
:1011D000A069C01EA0610FB1401EA0612046FFF7AC
:1011E00085F84FB1D4E9012138469047206A401C68
:1011F0002062C01C206206E0206AFAE7D4E90121DF
:1012000015F8010B9047761EF8D22046FFF784F8B8
:10121000BDE8F0814E414E006E616E00494E4600C1
:10122000696E66002DE9F047814616468AB035485A
:1012300078440DC88DE80D0032487844801C03AC1A
:101240000DC884E80D0041F69B300844372190FB1F
:10125000F1F290FBF1F5A5F1800501FB12041B3CB6
:1012600002D56442012000E00020DFF898A080460B
:101270000027FA44AAF1BE0A0EE0E0070AD032467F
:10128000684607EB470101230AEB810100F022FBCE
:101290008DE8070064107F1C002CEED1194F7F44AD
:1012A000AE3F19E0E80715D007EB04100DF1180A5E
:1012B00090E80E008AE80E00C068F04201D198194B
:1012C00008903246012306A903A800F003FB03ABF4
:1012D00083E807006D10641C002DE3D14FF001037B
:1012E00032466946B8F1000F03A802D000F0DDFADB
:1012F00001E000F0EFFAC9E90001C9F808200AB0DE
:10130000BDE8F087541F000010B50446AFF300801D
:101310002046BDE81040FEF786BF00000048704739
:101320001C0100204FF0013C50F8042B51F8043B05
:101330009A4221D1A2EB0C03934313EACC1317D1A9
:1013400050F8042B51F8043B9A4215D1A2EB0C0340
:10135000934313EACC130BD150F8042B51F8043B00
:101360009A4209D1A2EB0C03934313EACC13DBD0CE
:101370004FF00000704700BFD01A01BAB1FA81F1F6
:1013800001F0180122FA01F0CB40C1F12001DBB2DB
:10139000C0B2C01A2CFA01F3D11A914311EAC31159
:1013A000E6D1704701491820ABBEFEE726000200D7
:1013B00070475FEA400C08BF91F0000F4FEA8C23A2
:1013C0004FEAC12243EA51514FEA1C5018BF00F5C1
:1013D000F0404FEA300018BF41F000415FEA6C5C1A
:1013E00000F02980BCF1FF3F08BF40F0804070470B
:1013F000130C06BF12044FF0100C4FF0000C130E2C
:1014000004BF12020CF1080C130F04BF12010CF1FF
:10141000040C930F04BF92000CF1020CD30F04BF15
:1014200052000CF1010C11464FF00002A0F11F0018
:10143000A0EB0C00704711F0004F08BF704731F06F
:1014400000413FF4D5AF0B0C06BF09044FF0100C60
:101450004FF0000C0B0E04BF09020CF1080C0B0F2F
:1014600004BF09010CF1040C8B0F04BF89000CF1BF
:10147000020CCB0F04BF49000CF1010CCCF120038E
:10148000A0EB0C0022FA03F302FA0CF241EA03018A
:1014900000F10100704720F07F4C80EA030023F048
:1014A0007F47ACEB070303F57C5300F0004003F1EA
:1014B000FF032DE980494FEA154B09B44FEA144365
:1014C00025EA0B4E24EA03480FF2042606EB132705
:1014D00049083E785FEA320203FB0667C7F500075A
:1014E00007FB06F64FEA54374FEAD64606F10206E6
:1014F00007FB066CCCF1005C4FEA1C472CEA074C5A
:1015000007FB06F40CFB06F504EB15464FEA9616AE
:1015100034BF00204FF000404FEAD13706FB07FCF4
:101520004FEA1C4C0CFB0BF7D21B03FB0CF761EBD7
:1015300007010CFB0EF7B0EB074072EB17420CFBF8
:1015400008F734BFA2EB0742B2EB074261EB174149
:101550004FEA0C444FEA910706FB07FC4FEA1C4C8C
:101560000CFB0BF7B0EBC74072EB573203FB0CF7E9
:1015700034BFA2EBC742B2EBC74261EB57310CFB61
:101580000EF7B0EBC70072EB57720CFB08F734BFD5
:10159000A2EBC702B2EBC70261EB5771039F4FEAA0
:1015A000816141EA921104EBCC044FEAD1374FEA52
:1015B000826206FB07FC42EA90124FEA80604FEA23
:1015C0001C4C0CFB0BF7D21B03FB0CF761EB070168
:1015D0000CFB0EF7B0EB074072EB17420CFB08F761
:1015E00034BFA2EB0742B2EB074261EB17414FEA6F
:1015F0008C554FEA910704EB9C2406FB07FC4FEA4D
:101600001C4C0CFB0BF7B0EBC74072EB573203FBE3
:101610000CF734BFA2EBC742B2EBC74261EB5731C4
:101620000CFB0EF7B0EBC70072EB57720CFB08F720
:1016300034BFA2EBC702B2EBC70261EB577115EBE7
:101640004C254FEA816141EA92114FEA82624FEAEA
:10165000D13742EA901206FB07FC44F100044FEA3E
:1016600080604FEA1C4C0CFB0BF7D21B03FB0CF702
:1016700061EB07010CFB0EF7B0EB074072EB174272
:101680000CFB08F734BFA2EB0742B2EB074261EB59
:10169000174115EB1C154FEA813141EA92414FEA9F
:1016A000823242EA90424FEA80304FEA0C7644F1AF
:1016B000000448EA03434EEA0B484FF0000EB2EB39
:1016C000080C71EB030724BF624639464EEB0E0E41
:1016D0004FF0000B0018524149414BEB0B0BB2EBA2
:1016E000080C71EB03077BF1000B24BF62463946FF
:1016F0004EEB0E0E4FF0000B0018524149414BEBE0
:101700000B0BB2EB080C71EB03077BF1000B24BF52
:10171000624639464EEB0E0E51EA020718BF46F0FC
:10172000010616EB0E7655F1000254F1000103D5C7
:10173000BDE88901BDE80088BDE88901BDE8004831
:10174000B619524141EB0101A3F1010370478080BA
:101750007F7E7D7C7B7A797877767675747372710B
:1017600071706F6E6E6D6C6C6B6A6A6968686766C3
:1017700066656464636362616160605F5F5E5E5D55
:101780005D5C5C5B5B5A5A595958585757565655C9
:1017900055555454535352525251515050504F4F2B
:1017A0004F4E4E4D4D4D4C4C4C4B4B4B4A4A4A497B
:1017B00049494848484747474746464645454544BE
:1017C0004444444343434342424242414141002B4B
:1017D0009C4630D477002BD01CB54FEA370703B4B2
:1017E0004FF010004FF01001BAF1000F06D0BCF11D
:1017F000000FDCBF40F0080040F008014FF000008F
:101800000FBCBDE810400BF1010BBBF1010F08BF8D
:101810005FEA170722BF12F1010211F101014FF037
:10182000004143F1000300F0004043EA000070472C
:10183000F9D35708D0E746EA064613F1400F4FEABE
:1018400016461FDD13F1200FDFBF16430A460021A5
:1018500020335B42BED0C3F1200746EA064602FAB7
:1018600007F74FEA164646EA0706C3F1200722FAB1
:1018700003F201FA07F721FA03F14FF0000342EAFD
:101880000702A7E746EA020646EA06464FEA164678
:1018900046EA0106BCBF46EA0646360C4FF0000396
:1018A0004FF000024FF0000194E72DE9804C9A467A
:1018B000934670B491E8380007C831EA400C48BF3D
:1018C00034EA430C03D5FFF7E6FDFFF780FFF0BCD9
:1018D000BDE8008C2DE9804C9A46934670B491E89F
:1018E000380007C810F0804F08BF13F0804F03D1B5
:1018F00000F005F8FFF76BFFF0BCBDE8008C20F0AE
:101900007F4780EA030023F07F4C07EB0C03A3F52D
:101910007C5300F00040A3F1FE0392F0000F00F0B2
:10192000B38095F0000F00F077802DE901494FEA70
:1019300011404FEA144621EA004800FB06FC24EA65
:10194000064708FB06F607FB08F800FB07F718EB4D
:1019500006484CEB164C4FEA124B18EB07484FEA7F
:1019600015464CEB174022EA0B4E0BFB06FC25EA12
:1019700006470EFB06F607FB0EFE0BFB07F71EEBFA
:10198000064E4CEB164C4FF000061EEB074E4CEB90
:10199000174B18EB0B0840F1000018EB0E0B58EB3F
:1019A000000840F100008F1A4FF000013CBFC9430E
:1019B000661B14BFB5EB040C00213CBFC943F61BEA
:1019C0004FEA17444EEA8E0E27EA04454FEA1C47B9
:1019D00004FB07622CEA074C05FB07F70CFB05F636
:1019E00004FB0CFC16EB074642EB174216EB0C46C9
:1019F00042EB1C421BEB060658EB0202414146EA51
:101A00009E0601D5BDE80189B619524141EB01019D
:101A1000A3F10103BDE801894FEA14454FEA1147DC
:101A200024EA054621EA074C05FB07F406FB07F705
:101A30000CFB06F105FB0CFC11EB074144EB1744D2
:101A40004FEA124711EB0C4144EB1C4422EA074CCD
:101A500005FB07F206FB07F70CFB06F605FB0CFC83
:101A600016EB074642EB174216EB0C4642EB1C45C1
:101A70006A1854F1000148BF7047B619524141EB52
:101A80000101A3F10103704795F0000F37D04FEA31
:101A900011424FEA144721EA024624EA074C02FBAE
:101AA00007F106FB07F70CFB06F402FB0CFC14EB3A
:101AB000074441EB17414FEA154714EB0C4441EB47
:101AC0001C4125EA074C02FB07F506FB07F70CFB58
:101AD00006F602FB0CFC16EB074645EB174516EB2A
:101AE0000C4645EB1C42121951F1000148BF7047EA
:101AF000B619524141EB0101A3F1010370474FEACE
:101B000014454FEA114724EA054621EA074C05FB34
:101B100007F106FB07F70CFB06F24FF0000605FB8A
:101B20000CFC12EB074241EB174112EB0C4251EB5C
:101B30001C4148BF7047921841EB0101A3F101031A
:101B40007047FEE7704700B502464FF47A7302E033
:101B5000184600F004F8521E501CF9D100BD00EBED
:101B6000C000C1004FF0E0204161002181610521EA
:101B700001610169C903FCD50421016170472DE9A8
:101B8000F0410022CC7804F00F03E40601D58C78F4
:101B900023430C784FF00F0714F0FF0F4FF0010CA8
:101BA0001CD005680CFA02F40E882640A64211D11A
:101BB000960007FA06F825EA080503FA06F848EA47
:101BC0000505CE78282E02D0482E02D002E04461CE
:101BD00000E00461521C082AE4D305600A88FF2A49
:101BE0001ED94568002202F108060CFA06F40E8898
:101BF0002640A64210D1960007FA06F825EA080505
:101C000003FA06F848EA0505CE78282E00D144618B
:101C1000CE78482E00D10461521C082AE3D34560D7
:101C2000BDE8F081002A01D0016170474161704731
:101C3000FEE70000F8B50121082000F023FA142087
:101C40008DF8030003208DF802004FF48074ADF886
:101C500000400B4E69463046FFF791FF6500ADF836
:101C6000005069463046FFF78AFF01222146304680
:101C7000FFF7D8FF012229463046FFF7D3FFF8BD12
:101C8000000C01402DE9F04707460024134D4FF0AA
:101C900080094FF40078AE1529FA04F23A40414623
:101CA0002846FFF7BFFF012231462846FFF7BAFF5B
:101CB000002231462846FFF7B5FF641CE4B2082C29
:101CC000EAD3012231462846FFF7ACFF31462846C9
:101CD000BDE8F0470022FFF7A5BF0000000C01405F
:101CE00070B501220B4D540221462846FFF79AFF9A
:101CF0000122160231462846FFF794FF00222146B2
:101D00002846FFF78FFF31462846BDE87040002285
:101D1000FFF788BF000C014070B50A4D4FF4007406
:101D2000002221462846FFF77DFF012211022846A6
:101D3000FFF778FF21462846BDE870400122FFF7F3
:101D400071BF0000000C0140FEE7704770B50F2323
:101D5000C27801260178002A1ED0144A126802F4C3
:101D6000E062C2F5E062120AC2F10404D340457891
:101D7000A54082781A402A43120101F1E02181F83E
:101D80000024007800F01F018E404009800000F11F
:101D9000E020C0F8006170BD01F01F0086404809D6
:101DA000800000F1E020C0F8806170BD0CED00E023
:101DB00070B500250021284600F0B9F80024002065
:101DC00000F03AF9641CE4B2802CF8D36D1CEDB23B
:101DD000082DEFD370BD70B5401EC5B24E1E0DE08C
:101DE0000021284600F0A3F80024002000F024F988
:101DF000641CE4B2802CF8D36D1CEDB2B542EFDD6B
:101E000070BD000010B5034600F030F925480360AE
:101E1000AE2000F0F7F8D52000F0F4F8802000F0B4
:101E2000F1F8A82000F0EEF83F2000F0EBF8D32006
:101E300000F0E8F8002000F0E5F8402000F0E2F8BB
:101E4000A12000F0DFF8C82000F0DCF8DA2000F074
:101E5000D9F8122000F0D6F8812000F0D3F88020C5
:101E600000F0D0F8D92000F0CDF8F12000F0CAF849
:101E7000DB2000F0C7F8302000F0C4F8A42000F008
:101E8000C1F8A62000F0BEF88D2000F0BBF81420A9
:101E900000F0B8F8AF2000F0B5F8BDE81040FFF74B
:101EA00087BF0000000000202DE9F05F8346DDE9D8
:101EB0000A95DDF83C800C9C8A4616461F462E206B
:101EC00000F0A0F800F0D2F8A32000F09BF8ABF1EE
:101ED000010B0BF0FF0000F095F8AAF1010A0AF0DF
:101EE000FF0000F08FF8384600F08CF8304600F024
:101EF00089F8A9F1010909F0FF0000F083F84046D4
:101F000000F080F86D1EE8B200F07CF80E9800F04A
:101F100079F8641EE0B200F075F80D98401EC0B26A
:101F200000F070F8BDE8F05F2F2000F06BB810B53E
:101F30000C4640F0B00000F065F8102040EA1410A4
:101F400000F060F804F00F00BDE8104000F05AB84F
:101F500000F058B82DE9F0410746781E4E1EA2F158
:101F60002005082B12D0F1B2C0B2FFF7E0FF002429
:101F7000154905EB450001EB4005285D00F05CF8D4
:101F8000641CE4B2062CF8D3BDE8F081F1B2C0B213
:101F9000FFF7CDFF00240D4800EB0515285D00F08C
:101FA0004BF8641CE4B2082CF8D3F1B23846FFF7C2
:101FB000BEFF00242819007A00F03EF8641CE4B249
:101FC000082CF7D3E0E700004C280008742A00082A
:101FD0002DE9F04180460E4615461F46002409E0D3
:101FE00007FB0460C1B22A573B464046FFF7B2FFE9
:101FF000641CE4B2285D0028F2D1BDE8F0812E20F7
:10200000AFF3008070B505460A4C20680168884728
:102010002068816878208847206881680020884788
:10202000206881682846884720684068BDE870407D
:10203000004700000000002070B505460A4C2068EB
:10204000016888472068816878208847206881680F
:102050004020884720688168284688472068406873
:10206000BDE87040004700000000002000214FF450
:10207000FA620020401C9042FCD3491C9142F8D3E4
:1020800070477047054A002903D091690143916167
:1020900070479169814391617047000000100240D0
:1020A00010B5264A516801F00C01254B002927D0B4
:1020B000042927D0082927D00360516801F0F001D6
:1020C0000909204B5C5C0168E1404160546804F4FC
:1020D000E064240A1C5D21FA04F48460546804F46A
:1020E0006054E40A1B5DD940C160526802F440426A
:1020F000920B144B1B1F9A5CB1FBF2F1016110BDF6
:102100000360DAE70360D8E7516801F4701153689F
:1021100003F48033022404EB914133B153689B03F1
:1021200007D5094B59430160C7E7074B5943016085
:10213000C3E7034B59430160BFE7000000100240B2
:1021400000127A000A00002000093D00704700F0EC
:1021500001B800000CB500220192009227480168E6
:1021600041F4803101604FF4A063016801F4003153
:1021700000910199491C0191009911B90199994265
:10218000F3D10168890302D50121009100E000929A
:102190000099012930D11A490A6842F010020A60F8
:1021A0000A6822F003020A600A6842F002020A602A
:1021B0004168416041684160416841F4806141602B
:1021C000416821F47C114160416841F4E8114160AB
:1021D000016841F08071016001688901FCD54168A6
:1021E00021F003014160416841F002014160416812
:1021F000C1F381010229FAD10CBD00000010024098
:10220000002002407047000010B50F48016841F0FF
:102210000101016041680D4A1140416001680C4AAA
:1022200011400160016821F480210160416821F4BE
:10223000FE0141604FF41F018160FFF788FF0549EF
:102240004FF00060086010BD001002400000FFF871
:10225000FFFFF6FE08ED00E002480088C0F30D0025
:10226000704700000400002001480088C00B704740
:102270000400002070B586B00546012144F2040038
:10228000FFF700FF4FF40070ADF8140003248DF841
:10229000164018218DF817101C4E05A93046FFF77F
:1022A0006EFC3115ADF8141004218DF8171005A936
:1022B0003046FFF764FC25208DF800008DF80140C2
:1022C0008DF8024001208DF803006846FFF73EFDBF
:1022D00001950020ADF80800ADF80A00ADF80C003B
:1022E000ADF810000C20ADF80E00094C01A92046F5
:1022F00000F0D8F8012240F22551204600F0B7F84E
:102300000121204600F080F806B070BD00080140B1
:102310000038014001490020088070470400002077
:1023200010B5064C0146204600F01EF9402120461B
:1023300000F076F80028F9D010BD00000038014008
:102340000FB4F0B5C1B04FF480716846FDF7A4FF3B
:1023500047AA68464699FDF78DFF06460020409043
:1023600000240C4F6D4609E0285DFFF7D9FF80215E
:10237000384600F055F80028F9D0641CB442F3D375
:102380004021384600F04CF80028F9D041B0F0BCAC
:102390005DF814FB0038014070B5184C40F225512F
:1023A000204600F044F8002817D0204600F0D8F866
:1023B000C1B2134A108803040FD4124C45044FF0E5
:1023C00000030BD50A2901D0138002E040F400403D
:1023D00010801088C0F30D00235470BD0D2909D062
:1023E000C0F30D056155401C80B21080FE28F4D961
:1023F000138070BD40F48040108070BD00380140F3
:10240000040000201C000020002904D0818941F430
:10241000005181817047818921F400518181704789
:102420000246002012880A4200D00120704770B591
:10243000002440F66A12C1F3421301F01F05012681
:1024400006FA05F2012B0CD0022B0DD0838A134023
:10245000090A8E40008830400BB100B101242046AB
:1024600070BD83891340F3E7038A1340F0E710B58A
:1024700040F66A13C1F3421301F01F040121A14089
:10248000012B07D0022B07D014303AB102680A435F
:10249000026010BD0C30F8E71030F6E702688A439E
:1024A000026010BD30B585B004460D46208A4CF65A
:1024B000FF710840E98801432182A0894EF6F3119B
:1024C0000840A9882A8911436A8902431143A181DE
:1024D000A08A4FF6FF410840A9890143A1826846BE
:1024E000FFF7DEFD1D48844201D1039800E0029809
:1024F000A189090408D500EBC00101EB001029688F
:102500004900B0FBF1F007E000EBC00101EB001067
:1025100029688900B0FBF1F06422B0FBF2F10901F7
:102520000B096FF018056B4300EB8300A3891D04B2
:102530004FF0320307D503EBC000B0FBF2F000F020
:102540000700084306E003EB0010B0FBF2F000F0D8
:102550000F000843208105B030BD00000038014065
:102560008088C0F308007047C1F30801818070477C
:10257000FEE7490050EAC12018BF04204A0D18BFE9
:1025800040F0010040F2FF72B2EB515F08BF40F033
:102590000200012808BF0520704730380A2801D200
:1025A00001207047002070478AB0FFF743FB604866
:1025B000D0E900128068CDE90712099007A8FFF75B
:1025C00021FC4FF4E130FFF755FE5AA0FFF7B8FEAB
:1025D00065A0FFF7B5FE0121082371A20846FFF7A9
:1025E000F7FC082373A201210320FFF7F1FC4FF44D
:1025F0007A773846FFF7A7FAA720FFF7A9FC08214A
:102600000420FFF794FCFF20FFF716FD08210520AA
:10261000FFF78DFCFF20FFF70FFD78210420FFF767
:1026200086FCFF20FFF708FD78210520FFF77FFCDF
:10263000FF20FFF701FD002404F109010D46C9B296
:102640000420FFF774FC0120FFF7F6FCE9B2052037
:10265000FFF76DFC8020FFF7EFFC641C6F2CEBDBB9
:1026600001260020CDE9046080210220CDE902612D
:10267000CDE900602923324610213046FFF714FCD3
:102680004FF4FA70FFF75FFA022404F108010D46D7
:10269000C9B20420FFF74BFCFD20FFF7CDFCE9B2E7
:1026A0000520FFF744FCBF20FFF7C6FC04EBD47005
:1026B000A4EB6000401CFFF746FA641C6F2CE4DBBF
:1026C000082341A201210520FFF782FC3846FFF7CD
:1026D0003AFAFFF794FC02210120FFF77CFB01216D
:1026E00008232FA20846FFF773FC06210520FFF7F9
:1026F00072FBFFF7B9FD0028FBD006210520FFF78C
:102700006AFB0024354D0CE0285DFFF709FE06EB5F
:10271000C400C1B22A5708230520FFF71BFC641C24
:10272000E4B2FFF799FDA042EED8FFF7F3FDE0E732
:10273000402800080A5541525420696E6974696145
:102740006C697A6174696F6E20636F6D706C65740B
:102750006521204261756420726174653A203131CF
:10276000353230302E0A0000506C6561736520737D
:10277000656E64206120737472696E6720746F20C7
:10278000646973706C6179206F6E20746865204F86
:102790004C45442073637265656E2E0A000000008C
:1027A0002055415254204F4C454420544553542009
:1027B000000000003D3D3D3D3D3D3D3D3D3D3D3D3D
:1027C0003D3D3D3D00000000202020202046494E98
:1027D0004953482020202020000000001C00002039
:1027E00010B500290AD00878002807D00548784499
:1027F000FEF798FD002801D0002010BD0248784463
:1028000010BD0000D2090000CA09000010B500295F
:102810000AD00878002807D005487844FEF782FDE2
:10282000002801D0002010BD0248784410BD0000EF
:10283000C2090000BA090000FEF781B9FEF7B6BA76
:10284000E11C0008191D0008851C0008000000009C
:1028500000000000002F0000000007000700001427
:102860007F147F1400242A7F2A1200626408132335
:1028700000364955225000000503000000001C22CC
:102880004100000041221C000014083E081400080A
:10289000083E0808000000A06000000808080808BA
:1028A000000060600000002010080402003E514952
:1028B000453E0000427F40000042615149460021F0
:1028C00041454B31001814127F100027454545390A
:1028D000003C4A4949300001710905030036494965
:1028E000493600064949291E00003636000000001E
:1028F0005636000000081422410000141414141469
:102900000000412214080002015109060032495911
:10291000513E007C1211127C007F49494936003E2D
:1029200041414122007F4141221C007F49494941E8
:10293000007F09090901003E4149497A007F0808E2
:10294000087F0000417F4100002040413F01007F9F
:1029500008142241007F40404040007F020C027F6B
:10296000007F0408107F003E4141413E007F09097D
:102970000906003E4151215E007F091929460046A3
:10298000494949310001017F0101003F4040403F7A
:10299000001F2040201F003F4038403F00631408C4
:1029A000146300070870080700615149454300009F
:1029B0007F41410000552A552A55000041417F00C2
:1029C00000040201020400404040404000000102B7
:1029D0000400002054545478007F484444380038A0
:1029E0004444442000384444487F00385454541828
:1029F00000087E0901020018A4A4A47C007F08043A
:102A000004780000447D4000004080847D00007F09
:102A1000102844000000417F4000007C0418047826
:102A2000007C0804047800384444443800FC242422
:102A300024180018242418FC007C0804040800480A
:102A40005454542000043F444020003C4040207C2B
:102A5000001C2040201C003C4030403C004428101A
:102A60002844001CA0A0A07C004464544C441414CE
:102A70001414141400000000000000000000000006
:102A800000000000000000F800000000000000331B
:102A90003000000000100C06100C060000000000C2
:102AA0000000000040C07840C0784000043F0404AB
:102AB0003F040400007088FC08300000001820FF6C
:102AC000211E0000F008F000E018000000211C03A7
:102AD0001E211E0000F00888700000001E21232423
:102AE0001927211010160E00000000000000000041
:102AF00000000000000000E01804020000000007D1
:102B00001820400000020418E000000000402018D7
:102B100007000000404080F0804040000202010FAA
:102B200001020200000000F0000000000101011F8E
:102B300001010100000000000000000080B07000F2
:102B40000000000000000000000000000001010182
:102B50000101010100000000000000000030300011
:102B600000000000000000008060180400601806EB
:102B70000100000000E010088870E000000F182637
:102B800021100F0000001010F800000000002020AD
:102B90003F202000007008080808F00000302824BA
:102BA0002221300000300808088870000018202119
:102BB00021221C000000804030F80000000605249F
:102BC000243F242400F88888880808000019202061
:102BD00020110E0000E0108888900000000F1120E6
:102BE00020201F0000180808886818000000003E18
:102BF000010000000070880808887000001C222175
:102C000021221C0000F008080810E0000001122238
:102C100022110F00000000C0C000000000000030C2
:102C20003000000000000080000000000000806014
:102C30000000000000008040201008000001020495
:102C4000081020004040404040404000040404047C
:102C50000404040000081020408000000020100838
:102C600004020100007048080808F000000000306D
:102C700036010000C030C828E810E00007182724FB
:102C800023140B000000C038E0000000203C2302A9
:102C90000227382008F8888888700000203F20200C
:102CA00020110E00C030080808083800071820203E
:102CB0002010080008F808080810E000203F202035
:102CC00020100F0008F88888E8081000203F202016
:102CD0002320180008F88888E8081000203F20000A
:102CE00003000000C0300808083800000718202042
:102CF000221E020008F808000008F808203F210101
:102D000001213F20000808F8080800000020203FAB
:102D10002020000000000808F8080800C08080801B
:102D20007F00000008F888C028180800203F200114
:102D30002638200008F8080000000000203F20206E
:102D40002020300008F8F800F8F80800203F003F85
:102D5000003F200008F830C00008F808203F20009D
:102D600007183F00E01008080810E0000F102020AE
:102D700020100F0008F808080808F000203F210183
:102D800001010000E01008080810E0000F182424DA
:102D900038504F0008F8888888887000203F20004D
:102DA000030C302000708808080838000038202103
:102DB00021221C00180808F8080818000000203F0D
:102DC0002000000008F808000008F808001F202074
:102DD00020201F000878880000C838080000073845
:102DE0000E010000F80800F80008F800033C070096
:102DF000073C0300081868808068180820302C03FE
:102E0000032C30200838C800C83808000000203FD4
:102E10002000000010080808C838080020382621C3
:102E200020201800000000FE020202000000007FC7
:102E300040404000000C30C00000000000000001D5
:102E40000638C00000020202FE00000000404040C0
:102E50007F000000000004020202040000000000E5
:102E60000000000000000000000000008080808062
:102E7000808080800002020400000000000000004A
:102E800000000000000080808080000000192422E3
:102E900022223F2008F8008080000000003F11201F
:102EA00020110E000000008080800000000E112024
:102EB00020201100000000808088F800000E112002
:102EC00020103F200000808080800000001F222210
:102ED00022221300008080F0888888180020203F7C
:102EE000202000000000808080808000006B94948F
:102EF0009493600008F8008080800000203F21004B
:102F000000203F2000809898000000000020203F13
:102F100020200000000000809898000000C0808001
:102F2000807F000008F8000080808000203F24029D
:102F30002D302000000808F8000000000020203F8D
:102F4000202000008080808080808000203F200042
:102F50003F20003F8080008080800000203F2100D3
:102F600000203F200000808080800000001F202083
:102F700020201F00808000808000000080FFA120B2
:102F800020110E000000008080808000000E1120C3
:102F900020A0FF80808080008080800020203F2152
:102FA0002000010000008080808080000033242405
:102FB00024241900008080E0808000000000001FB1
:102FC000202000008080000000808000001F202062
:102FD00020103F20808080000080808000010E3023
:102FE0000806010080800080008080800F300C0384
:102FF0000C300F0000808000808080000020312E87
:103000000E312000808080000080808080818E7062
:103010001806010000808080808080000021302C14
:103020002221300000000000807C0202000000002D
:10303000003F404000000000FF00000000000000D2
:10304000FF0000000002027C800000000040403FC2
:10305000000000000006010102020404000000005C
:10306000000000001060028C00FE02F202FE00F878
:1030700000FF000004047E018047300F1027004746
:10308000807F0000404042CC009090909090FF10D4
:10309000111610000000003F1028603F1010010EB4
:1030A0003040F000000000000000000030313233FA
:1030B000343536373839414243444546403058006C
:1030C000303132333435363738396162636465669E
:1030D00040307800040000080000000000000002FA
:1030E0000001000010303132333435363738396161
:1030F0006263646566787000303132333435363758
:1031000038394142434445465850000002400000CF
:10311000000000A00000000005400000000000C802
:10312000000000000C4000000000409C0000000077
:10313000194000000020BCBE000000003440000028
:10314000BFC91B8E00000004B5400000504BCFD01B
:103150006607E2CF010000006C4100003E8251AAE8
:10316000DFEEA73401000000D9420000DCB5A0E288
:103170003A301F97FFFFFFFFB4450000FD25A0C8B0
:10318000E9A3C14FFFFFFFFFFF3F000000000080E9
:1031900000000000FF3F0000000000800000000071
:1031A000EC320008000000201C000000280100088C
:1031B000083300081C0000206407000044010008D8
:1031C0001C00000043000000F8FFFFFF0C0000009F
:1031D0000E0000000F0000002E0000001001000093
:1031E00043000000F8FFFFFF0040404040404040E7
:1031F00040404141414141404040404040404040CA
:10320000404040404040404040050202020202026D
:1032100002020202020202020220202020202020BC
:1032200020202002020202020202909090909090D0
:10323000101010101010101010101010101010108E
:103240001010101002020202020288888888888802
:1032500008080808080808080808080808080808EE
:1032600008080808020202024000000000000000F6
:10327000000000000000000000000000000000004E
:10328000000000000000000000000000000000003E
:10329000000000000000000000000000000000002E
:1032A000000000000000000000000000000000001E
:1032B000000000000000000000000000000000000E
:1032C00000000000000000000000000000000000FE
:1032D00000000000000000000000000000000000EE
:1032E00000000000000000000000000000000000DE
:1032F00000000204060800000000010203040102AD
:083300000304060708090000A0
:04000005080000ED02
:00000001FF
