:020000040800F2
:1000000078070020890100089303000831030008E5
:100010009103000843020008E90B000800000000FB
:10002000000000000000000000000000650700085C
:10003000450200080000000099060008D5080008E5
:10004000A3010008A3010008A3010008A301000800
:10005000A3010008A3010008A3010008A3010008F0
:10006000A3010008A3010008A3010008A3010008E0
:10007000A3010008A3010008A3010008A3010008D0
:10008000A3010008A3010008A3010008A3010008C0
:10009000A3010008A3010008A3010008A3010008B0
:1000A000A3010008A3010008A3010008A3010008A0
:1000B000A3010008A3010008A3010008A301000890
:1000C000A3010008A3010008A3010008A301000880
:1000D000A3010008110A0008A3010008A3010008F9
:1000E000A3010008A3010008A301000800F002F822
:1000F00000F03AF80AA090E8000C82448344AAF188
:100100000107DA4501D100F02FF8AFF2090EBAE885
:100110000F0013F0010F18BFFB1A43F0010318473B
:10012000B4140000D4140000103A24BF78C878C179
:10013000FAD8520724BF30C830C144BF04680C60ED
:10014000704700000023002400250026103A28BF35
:1001500078C1FBD8520728BF30C148BF0B60704739
:100160001FB51FBD10B510BD00F031F81146FFF7E7
:10017000F7FF00F03BFD00F04FF803B4FFF7F2FF8C
:1001800003BC00F057F800000948804709480047C1
:10019000FEE7FEE7FEE7FEE7FEE7FEE7FEE7FEE737
:1001A000FEE7FEE704480549054A064B7047000094
:1001B000D9080008ED000008780100207807002029
:1001C0007803002078030020704770477047754619
:1001D00000F02CF8AE4605006946534620F00700B3
:1001E000854618B020B5FFF7DDFFBDE820404FF091
:1001F00000064FF000074FF000084FF0000B21F011
:100200000701AC46ACE8C009ACE8C009ACE8C009DD
:10021000ACE8C0098D46704710B50446AFF30080C6
:100220002046BDE81040FFF7A8BF00000048704717
:100230001801002001491820ABBEFEE7260002008D
:100240007047FEE7704700B502464FF47A7302E04C
:10025000184600F004F8521E501CF9D100BD00EB06
:10026000C000C1004FF0E020416100218161052103
:1002700001610169C903FCD50421016170472DE9C1
:10028000F0410022CC7804F00F03E40601D58C780D
:1002900023430C784FF00F0714F0FF0F4FF0010CC1
:1002A0001CD005680CFA02F40E882640A64211D133
:1002B000960007FA06F825EA080503FA06F848EA60
:1002C0000505CE78282E02D0482E02D002E04461E7
:1002D00000E00461521C082AE4D305600A88FF2A62
:1002E0001ED94568002202F108060CFA06F40E88B1
:1002F0002640A64210D1960007FA06F825EA08051E
:1003000003FA06F848EA0505CE78282E00D14461A4
:10031000CE78482E00D10461521C082AE3D34560F0
:10032000BDE8F081002A01D001617047416170474A
:10033000FEE700002DE9F04707460024134D4FF07B
:1003400080094FF40078AE1529FA04F23A4041468C
:100350002846FFF7E7FF012231462846FFF7E2FF74
:10036000002231462846FFF7DDFF641CE4B2082C6A
:10037000EAD3012231462846FFF7D4FF314628460A
:10038000BDE8F0470022FFF7CDBF0000000C0140A0
:10039000FEE7704770B50F23C27801260178002A66
:1003A0001ED0144A126802F4E062C2F5E062120A3A
:1003B000C2F10404D3404578A54082781A402A430C
:1003C000120101F1E02181F80024007800F01F0102
:1003D0008E404009800000F1E020C0F8006170BD4F
:1003E00001F01F0086404809800000F1E020C0F8BD
:1003F000806170BD0CED00E070B50025002128463D
:1004000000F0B4F80024002000F02AF9641CE4B2E3
:10041000802CF8D36D1CEDB2082DEFD370BD70B5F4
:10042000401EC5B24E1E0DE00021284600F09EF889
:100430000024002000F014F9641CE4B2802CF8D3EE
:100440006D1CEDB2B542EFDD70BD10B500F019F9CD
:1004500000F0E4F9AE2000F0F2F8D52000F0EFF85B
:10046000802000F0ECF8A82000F0E9F83F2000F030
:10047000E6F8D32000F0E3F8002000F0E0F8402098
:1004800000F0DDF8A12000F0DAF8C82000F0D7F87D
:10049000DA2000F0D4F8122000F0D1F8812000F02A
:1004A000CEF8802000F0CBF8D92000F0C8F8F12079
:1004B00000F0C5F8DB2000F0C2F8302000F0BFF8F3
:1004C000A42000F0BCF8A62000F0B9F88D2000F0C0
:1004D000B6F8142000F0B3F8AF2000F0B0F8BDE893
:1004E0001040FFF789BF2DE9F05F8346DDE90A95EB
:1004F000DDF83C800C9C8A4616461F462E2000F0F4
:100500009EF800F0BEF8A32000F099F8ABF1010BC3
:100510000BF0FF0000F093F8AAF1010A0AF0FF00C7
:1005200000F08DF8384600F08AF8304600F087F881
:10053000A9F1010909F0FF0000F081F8404600F040
:100540007EF86D1EE8B200F07AF80E9800F077F8A9
:10055000641EE0B200F073F80D98401EC0B200F0C7
:100560006EF8BDE8F05F2F2000F069B810B50C46BA
:1005700040F0B00000F063F8102040EA141000F0E2
:100580005EF804F00F00BDE8104000F058B800F02D
:1005900056B800002DE9F0410746781E4E1EA2F124
:1005A0002005082B12D0F1B2C0B2FFF7DFFF002404
:1005B000154905EB450001EB4005285D00F050F8BA
:1005C000641CE4B2062CF8D3BDE8F081F1B2C0B2ED
:1005D000FFF7CCFF00240D4800EB0515285D00F067
:1005E0003FF8641CE4B2082CF8D3F1B23846FFF7A8
:1005F000BDFF00242819007A00F032F8641CE4B230
:10060000082CF7D3E0E700007C0D0008A40F0008D9
:100610002DE9F04180460E4615461F46002409E0AC
:1006200007FB0460C1B22A573B464046FFF7B2FFC2
:10063000641CE4B2285D0028F2D1BDE8F08110B559
:10064000044600F013F97820FFF774FE0020FFF74E
:1006500071FE2046FFF76EFEBDE8104000F022B9A3
:1006600010B5044600F002F97820FFF763FE402041
:10067000FFF760FE2046FFF75DFEBDE8104000F08A
:1006800011B900214FF4FA620020401C9042FCD3C3
:10069000491C9142F8D3704770470000054A002971
:1006A00003D09169014391617047916981439161E0
:1006B000704700000010024010B5264A516801F052
:1006C0000C01254B002927D0042927D0082927D041
:1006D0000360516801F0F0010909204B5C5C01687E
:1006E000E1404160546804F4E064240A1C5D21FA8E
:1006F00004F48460546804F46054E40A1B5DD94037
:10070000C160526802F44042920B144B1B1F9A5C6A
:10071000B1FBF2F1016110BD0360DAE70360D8E7D5
:10072000516801F47011536803F48033022404EB20
:10073000914133B153689B0307D5094B594301607D
:10074000C7E7074B59430160C3E7034B59430160B7
:10075000BFE700000010024000127A0006000020EF
:1007600000093D00704700F001B800000CB5002200
:10077000019200922748016841F4803101604FF4F2
:10078000A063016801F4003100910199491C0191B5
:10079000009911B901999942F3D10168890302D5F1
:1007A0000121009100E000920099012930D11A49FD
:1007B0000A6842F010020A600A6822F003020A6026
:1007C0000A6842F002020A60416841604168416083
:1007D000416841F480614160416821F47C114160CD
:1007E000416841F4E8114160016841F080710160A5
:1007F00001688901FCD5416821F00301416041682D
:1008000041F0020141604168C1F381010229FAD13E
:100810000CBD00000010024000200240F8B501218C
:100820000820FFF73BFF14208DF8030003208DF80C
:1008300002004FF48074ADF800400B4E694630461C
:10084000FFF71DFD6500ADF8005069463046FFF723
:1008500016FD012221463046FFF764FD012229469C
:100860003046FFF75FFDF8BD000C014070B5012276
:100870000B4D540221462846FFF754FD0122160273
:1008800031462846FFF74EFD002221462846FFF755
:1008900049FD31462846BDE870400022FFF742BDC1
:1008A000000C014070B50A4D4FF40074002221463F
:1008B0002846FFF737FD012211022846FFF732FDD7
:1008C00021462846BDE870400122FFF72BBD0000FD
:1008D000000C01407047000010B50F48016841F05E
:1008E0000101016041680D4A1140416001680C4AF4
:1008F00011400160016821F480210160416821F408
:10090000FE0141604FF41F018160FFF72CFF054994
:100910004FF00060086010BD001002400000FFF8BA
:10092000FFFFF6FE08ED00E002480088C0F30D006E
:10093000704700000000002001480088C00B70478D
:100940000000002070B586B00546012144F2040085
:10095000FFF7A4FE4FF40070ADF8140003248DF8E7
:10096000164018218DF817101C4E05A93046FFF7C8
:1009700086FC3115ADF8141004218DF8171005A967
:100980003046FFF77CFC25208DF800008DF80140F3
:100990008DF8024001208DF803006846FFF7FAFC4D
:1009A00001950020ADF80800ADF80A00ADF80C0084
:1009B000ADF810000C20ADF80E00094C01A920463E
:1009C00000F0ACF8012240F22551204600F08BF8EF
:1009D0000121204600F054F806B070BD0008014027
:1009E00000380140014900200880704700000020C5
:1009F00010B5064C0146204600F0F2F84021204692
:100A000000F04AF80028F9D010BD0000003801407D
:100A100070B5184C40F22551204600F044F80028EB
:100A200017D0204600F0D8F8C1B2134A108803044A
:100A30000FD4124C45044FF000030BD50A2901D006
:100A4000138002E040F4004010801088C0F30D00D5
:100A5000235470BD0D2909D0C0F30D056155401C0C
:100A600080B21080FE28F4D9138070BD40F480401D
:100A7000108070BD003801400000002018000020E8
:100A8000002904D0818941F4005181817047818916
:100A900021F40051818170470246002012880A42E9
:100AA00000D00120704770B5002440F66A12C1F3EF
:100AB000421301F01F05012606FA05F2012B0CD0A6
:100AC000022B0DD0838A1340090A8E4000883040E3
:100AD0000BB100B10124204670BD83891340F3E7B8
:100AE000038A1340F0E710B540F66A13C1F34213CE
:100AF00001F01F040121A140012B07D0022B07D0D8
:100B000014303AB102680A43026010BD0C30F8E7B5
:100B10001030F6E702688A43026010BD30B585B038
:100B200004460D46208A4CF6FF710840E9880143CF
:100B30002182A0894EF6F3110840A9882A89114321
:100B40006A8902431143A181A08A4FF6FF41084000
:100B5000A9890143A1826846FFF7AEFD1D48844282
:100B600001D1039800E00298A189090408D500EB9F
:100B7000C00101EB001029684900B0FBF1F007E06B
:100B800000EBC00101EB001029688900B0FBF1F017
:100B90006422B0FBF2F109010B096FF018056B43F9
:100BA00000EB8300A3891D044FF0320307D503EB4C
:100BB000C000B0FBF2F000F00700084306E003EBD2
:100BC0000010B0FBF2F000F00F000843208105B0E8
:100BD00030BD0000003801408088C0F30800704735
:100BE000C1F3080181807047FEE7000086B0FFF77F
:100BF0002CFC4FF4E130FFF7A5FE012108234FA2A2
:100C00000846FFF705FD082351A201210320FFF745
:100C1000FFFC4FF47A752846FFF715FBA720FFF776
:100C2000B6FC08210420FFF7A1FCFF20FFF718FD08
:100C300008210520FFF79AFCFF20FFF711FD78211E
:100C40000420FFF793FCFF20FFF70AFD7821052021
:100C5000FFF78CFCFF20FFF703FD002404F10901DE
:100C60000E46C9B20420FFF781FC0120FFF7F8FC13
:100C7000F1B20520FFF77AFC8020FFF7F1FC641C3D
:100C80006F2CEBDB4FF4FA70FFF7DDFA022404F16E
:100C900008010E46C9B20420FFF768FCFD20FFF7EB
:100CA000DFFCF1B20520FFF761FCBF20FFF7D8FCA5
:100CB00004EBD470A4EB6000401CFFF7C4FA641C82
:100CC0006F2CE4DB082327A201210520FFF7A0FCFD
:100CD0002846FFF7B8FA06210520FFF7A0FB0126FA
:100CE0000020CDE9046080210220CDE90261CDE938
:100CF00000602923324610213046FFF7F4FBFFF74E
:100D00001BFE0028FBD006210520FFF788FB0024EE
:100D1000194D0CE0285DFFF76BFE06EBC400C1B275
:100D20002A5708230520FFF735FC641CE4B2FFF7BF
:100D3000FBFDA042EED8FFF755FEE0E720554152FB
:100D400054204F4C4544205445535420000000008B
:100D50003D3D3D3D3D3D3D3D3D3D3D3D3D3D3D3DC3
:100D600000000000202020202046494E4953482002
:100D700020202020000000001800002000000000BB
:100D800000000000002F0000000007000700001412
:100D90007F147F1400242A7F2A1200626408132320
:100DA00000364955225000000503000000001C22B7
:100DB0004100000041221C000014083E08140008F5
:100DC000083E0808000000A06000000808080808A5
:100DD000000060600000002010080402003E51493D
:100DE000453E0000427F40000042615149460021DB
:100DF00041454B31001814127F10002745454539F5
:100E0000003C4A494930000171090503003649494F
:100E1000493600064949291E000036360000000008
:100E20005636000000081422410000141414141453
:100E300000004122140800020151090600324959FC
:100E4000513E007C1211127C007F49494936003E18
:100E500041414122007F4141221C007F49494941D3
:100E6000007F09090901003E4149497A007F0808CD
:100E7000087F0000417F4100002040413F01007F8A
:100E800008142241007F40404040007F020C027F56
:100E9000007F0408107F003E4141413E007F090968
:100EA0000906003E4151215E007F0919294600468E
:100EB000494949310001017F0101003F4040403F65
:100EC000001F2040201F003F4038403F00631408AF
:100ED000146300070870080700615149454300008A
:100EE0007F41410000552A552A55000041417F00AD
:100EF00000040201020400404040404000000102A2
:100F00000400002054545478007F4844443800388A
:100F10004444442000384444487F00385454541812
:100F200000087E0901020018A4A4A47C007F080424
:100F300004780000447D4000004080847D00007FF4
:100F4000102844000000417F4000007C0418047811
:100F5000007C0804047800384444443800FC24240D
:100F600024180018242418FC007C080404080048F5
:100F70005454542000043F444020003C4040207C16
:100F8000001C2040201C003C4030403C0044281005
:100F90002844001CA0A0A07C004464544C441414B9
:100FA00014141414000000000000000000000000F1
:100FB00000000000000000F8000000000000003306
:100FC0003000000000100C06100C060000000000AD
:100FD0000000000040C07840C0784000043F040496
:100FE0003F040400007088FC08300000001820FF57
:100FF000211E0000F008F000E018000000211C0392
:101000001E211E0000F00888700000001E2123240D
:101010001927211010160E0000000000000000002B
:1010200000000000000000E01804020000000007BB
:101030001820400000020418E000000000402018C2
:1010400007000000404080F0804040000202010F95
:1010500001020200000000F0000000000101011F79
:1010600001010100000000000000000080B07000DD
:10107000000000000000000000000000000101016D
:1010800001010101000000000000000000303000FC
:1010900000000000000000008060180400601806D6
:1010A0000100000000E010088870E000000F182622
:1010B00021100F0000001010F80000000000202098
:1010C0003F202000007008080808F00000302824A5
:1010D0002221300000300808088870000018202104
:1010E00021221C000000804030F80000000605248A
:1010F000243F242400F8888888080800001920204C
:1011000020110E0000E0108888900000000F1120D0
:1011100020201F0000180808886818000000003E02
:10112000010000000070880808887000001C22215F
:1011300021221C0000F008080810E0000001122223
:1011400022110F00000000C0C000000000000030AD
:1011500030000000000000800000000000008060FF
:101160000000000000008040201008000001020480
:101170000810200040404040404040000404040467
:101180000404040000081020408000000020100823
:1011900004020100007048080808F0000000003058
:1011A00036010000C030C828E810E00007182724E6
:1011B00023140B000000C038E0000000203C230294
:1011C0000227382008F8888888700000203F2020F7
:1011D00020110E00C0300808080838000718202029
:1011E0002010080008F808080810E000203F202020
:1011F00020100F0008F88888E8081000203F202001
:101200002320180008F88888E8081000203F2000F4
:1012100003000000C030080808380000071820202C
:10122000221E020008F808000008F808203F2101EB
:1012300001213F20000808F8080800000020203F96
:101240002020000000000808F8080800C080808006
:101250007F00000008F888C028180800203F2001FF
:101260002638200008F8080000000000203F202059
:101270002020300008F8F800F8F80800203F003F70
:10128000003F200008F830C00008F808203F200088
:1012900007183F00E01008080810E0000F10202099
:1012A00020100F0008F808080808F000203F21016E
:1012B00001010000E01008080810E0000F182424C5
:1012C00038504F0008F8888888887000203F200038
:1012D000030C3020007088080808380000382021EE
:1012E00021221C00180808F8080818000000203FF8
:1012F0002000000008F808000008F808001F20205F
:1013000020201F000878880000C83808000007382F
:101310000E010000F80800F80008F800033C070080
:10132000073C0300081868808068180820302C03E8
:10133000032C30200838C800C83808000000203FBF
:101340002000000010080808C838080020382621AE
:1013500020201800000000FE020202000000007FB2
:1013600040404000000C30C00000000000000001C0
:101370000638C00000020202FE00000000404040AB
:101380007F000000000004020202040000000000D0
:10139000000000000000000000000000808080804D
:1013A0008080808000020204000000000000000035
:1013B00000000000000080808080000000192422CE
:1013C00022223F2008F8008080000000003F11200A
:1013D00020110E000000008080800000000E11200F
:1013E00020201100000000808088F800000E1120ED
:1013F00020103F200000808080800000001F2222FB
:1014000022221300008080F0888888180020203F66
:10141000202000000000808080808000006B949479
:101420009493600008F8008080800000203F210035
:1014300000203F2000809898000000000020203FFE
:1014400020200000000000809898000000C08080EC
:10145000807F000008F8000080808000203F240288
:101460002D302000000808F8000000000020203F78
:10147000202000008080808080808000203F20002D
:101480003F20003F8080008080800000203F2100BE
:1014900000203F200000808080800000001F20206E
:1014A00020201F00808000808000000080FFA1209D
:1014B00020110E000000008080808000000E1120AE
:1014C00020A0FF80808080008080800020203F213D
:1014D00020000100000080808080800000332424F0
:1014E00024241900008080E0808000000000001F9C
:1014F000202000008080000000808000001F20204D
:1015000020103F20808080000080808000010E300D
:101510000806010080800080008080800F300C036E
:101520000C300F0000808000808080000020312E71
:101530000E312000808080000080808080818E704D
:101540001806010000808080808080000021302CFF
:101550002221300000000000807C02020000000018
:10156000003F404000000000FF00000000000000BD
:10157000FF0000000002027C800000000040403FAD
:101580000000000000060101020204040000000047
:10159000000000001060028C00FE02F202FE00F863
:1015A00000FF000004047E018047300F1027004731
:1015B000807F0000404042CC009090909090FF10BF
:1015C000111610000000003F1028603F1010010E9F
:1015D0003040F000F4150008000000201800000062
:1015E000280100080C160008180000206007000001
:1015F0004401000800000204060800000000010287
:0C160000030401020304060708090000AF
:04000005080000ED02
:00000001FF
